:020000040800F2
:1000000080040020A1010008970300088F03000866
:1000100093030008E90100086709000800000000D8
:100020000000000000000000000000003D05000886
:10003000ED01000800000000110400082D06000872
:10004000BB010008BB010008BB010008BB010008A0
:10005000BB010008BB010008F1010008BB0100085A
:10006000BB010008BB010008BB010008BB01000880
:10007000BB010008BB010008BB010008BB01000870
:10008000BB010008BB010008BB010008BB01000860
:10009000BB010008BB010008BB010008BB01000850
:1000A000BB010008BB010008BB010008BB01000840
:1000B000BB010008BB010008BB010008BB01000830
:1000C000BB010008BB010008BB010008BB01000820
:1000D000BB010008A5070008BB010008BB01000820
:1000E000BB010008BB010008BB010008BB01000800
:1000F000BB010008BB010008BB010008BB010008F0
:10010000BB010008BB010008BB010008BB010008DF
:10011000BB010008BB01000899060008BB010008EC
:10012000BB010008BB010008BB010008BB010008BF
:10013000BB010008BB010008BB010008BB010008AF
:10014000BB010008BB010008BB010008BB0100089F
:10015000BB010008BB010008BB010008BB0100088F
:10016000BB010008BB010008BB010008BB0100087F
:10017000BB010008BB010008BB010008BB0100086F
:10018000BB010008BB010008DFF810D000F01AF82E
:10019000004800471D0B0008AFF3008080040020DA
:1001A0000648804706480047FEE7FEE7FEE7FEE711
:1001B000FEE7FEE7FEE7FEE7FEE7FEE731060008A2
:1001C00089010008064C074D06E0E06840F0010395
:1001D00094E8070098471034AC42F6D3FFF7D8FFF5
:1001E000B80B0008D80B000800BFFEE770470000FE
:1001F0000848006800F0010058B10648006840F067
:100200000100044908600448006820F48050024955
:1002100008607047143C0140140C024010B500F017
:100220002FFC2148006840F480401F4908601F48A7
:10023000006820F00F001D4908601D48006840F06C
:1002400001001B4908601A480838006840F00100A6
:100250001749083908601548006820F0F000134974
:1002600008600846006840F0100008601048006808
:1002700040F002000E4908600D480838006840F060
:1002800002000B49083908600421062000F0D4FB65
:10029000062000F0BFFB0621072000F0CDFB072061
:1002A00000F0B8FB10BD000044380240083801409F
:1002B000083C0140F0B50A4600210023002400BF9D
:1002C0003DE0012505FA01F3156805EA03049C42A7
:1002D00034D105684F000326BE40B543056015794B
:1002E0004E00B5400668354305601579012D02D0F2
:1002F0001579022D16D185684F000326BE40B543FF
:10030000856055794E00B5408668354385604568FF
:1003100001268E40B5434560456896798E40B6B259
:1003200035434560C5684F000326BE40B543C560F0
:10033000D5794E00B540C6683543C560491C1029C3
:10034000BFD3F0BDF0B5002300244D07ED0E02FA37
:1003500005F3CE1000F1200555F826504E07F70E94
:100360000F26BE40B543CF1000F1200646F82750B7
:10037000CE1000F1200555F8265045EA0304CE10B2
:1003800000F1200545F82640F0BD8161704700BFAF
:10039000FEE700BFFEE7704770B5002100230F2283
:1003A000C4781CB3174C246804F4E064C4F5E0641A
:1003B000C4F30721C1F10404E3B20A4144789C402C
:1003C000E1B28478144021430C07210E0E4C0578CD
:1003D0006155047804F01F050124AC4005786D11C7
:1003E000AD0005F1E025C5F8004109E0047804F00E
:1003F0001F050124AC40054D0678761145F82640CE
:1004000070BD00000CED00E000E400E080E100E0E1
:100410007047000029B1064A12680243044B1A6073
:1004200004E0034A12688243014B1A6070470000DF
:100430003038024029B1064A12680243044B1A6060
:1004400004E0034A12688243014B1A6070470000BF
:1004500044380240F0B50021002200240225002685
:100460000223324F3F6807F00C0121B1042905D067
:10047000082937D105E02E4F076036E02D4F076081
:1004800033E02A4F3F1F3F68C7F38056274F3F1F77
:100490003F6807F03F036EB1264FB7FBF3F7DFF875
:1004A0008CC0ACF1040CDCF800C0CCF3881C07FB5A
:1004B0000CF40CE01E4FB7FBF3F7DFF870C0ACF1A3
:1004C000040CDCF800C0CCF3881C07FB0CF4174FBD
:1004D0003F1F3F68C7F301477F1C7D00B4FBF5F762
:1004E000076002E0124F076000BF00BF0F4F3F6878
:1004F00007F0F0010909104F7A5C0768D7404760A0
:100500000A4F3F6807F4E051890A0B4F7A5C47684D
:10051000D7408760054F3F6807F46041490B064F9D
:100520007A5C4768D740C760F0BD000008380240D9
:100530000024F40040787D01050000207047000091
:100540000CB50020019000903448006840F48030E1
:100550003249086000BF3148006800F40030009064
:100560000198401C0190009818B90198B0F5A04F6F
:10057000F1D12A48006800F4003010B10120009049
:1005800001E0002000900098012846D12348403027
:10059000006840F0805021494031086020480068E0
:1005A00040F440401E4908601C48083000681B4960
:1005B000083108600846006840F4004008600846BA
:1005C000006840F4A05008601648091F0860081F22
:1005D000006840F08070091F086000BF0F48006885
:1005E00000F000700028F9D040F205700E49086054
:1005F0000A480830006820F0030008490831086004
:100600000846006840F00200086000BF0348083058
:10061000006800F00C000828F8D10CBD003802403A
:100620000070004019544007003C02407047000031
:1006300010B51548006840F470001349086013486D
:10064000006840F001001149086000200F4908319E
:1006500008600E4800680E4908400C4908600D48C3
:10066000091D0860081F006820F48020091F086029
:10067000002006490C310860FFF762FF4FF0006070
:1006800001498039086010BD88ED00E00038024063
:10069000FFFFF6FE103000240848008A00F0010039
:1006A00050B10648008A20F001000449088204483D
:1006B0000068401E024908607047000000100040BA
:1006C0000000002070B502460B462948006840F043
:1006D000100027490860501E26490885581EC86228
:1006E0000846008820F0020008800846008820F0B4
:1006F000040008800846008820F0080008800846AA
:10070000008820F0800008800846808940F00100C1
:1007100088810846808A40F0010088820846008867
:1007200040F00100088036200721002804DB0C0778
:10073000250E114C255406E00C07260E0F4C00F038
:100740000F052D1F665500BF362000280DDB00BFAA
:1007500000BF00F01F040121A1404409A40004F1DE
:10076000E024C4F8001100BF00BF00BF70BD00004E
:10077000403802400010004000E400E018ED00E0C6
:100780000649098841F00101044A118004490860C2
:1007900000BF034909680029FBD1704700100040E1
:1007A0000000002010B540F22551104800F03DF83F
:1007B00078B10E4800F0CEF8C4B20D480078632836
:1007C00006D20B490878411C094A117009490C549A
:1007D00000BF40F22771054800F027F828B105480E
:1007E00000F0DCF900200249087010BD0010014043
:1007F000040000201800002021B1828942F4005238
:10080000828104E082894DF6FF731A40828170472D
:1008100002460020B1F5007F00D100BF13880B40D5
:100820000BB1012000E00020704770B502460024A3
:1008300000230025002040F66A16B14200D100BF17
:10084000C1F3421501F01F03012606FA03F3012D3F
:1008500002D19689334006E0022D02D1168A334038
:1008600001E0968A33400C12012606FA04F4168839
:10087000344013B10CB1012000E0002070BD000035
:100880002DE9FF4705460E460024A14600BFA046BD
:10089000B08900B100BF2C8A24F44054F08804438E
:1008A0002C82AC8941F20C608443B08831890843C2
:1008B000718908430443AC81AC8A24F44074B08944
:1008C0000443AC826846FFF7C5FD2048854202D04C
:1008D0001F48854202D1DDF80C9001E0DDF8089058
:1008E000A88900F4004040B109EBC90000EB0910F1
:1008F00031684900B0FBF1F707E009EBC90000EBF4
:10090000091031688900B0FBF1F76420B7FBF0F003
:1009100004012009642101FB1078A88900F400403B
:1009200040B1322000EBC800B0FBF1F000F007004E
:10093000044308E0322000EB08106421B0FBF1F022
:1009400000F00F0004432C81BDE8FF870010014038
:100950000014014001468888C0F308007047C1F3C5
:1009600008028280704700BFFEE7000010B588B023
:10097000044601210846FFF74DFD01211020FFF735
:1009800059FD00200690079002208DF81C000020E1
:100990008DF81E008DF81D008DF81F004FF4C0600B
:1009A0000690072209211948FFF7CCFC07220A21EB
:1009B0001648FFF7C7FC06A91448FFF77BFC029412
:1009C0000020ADF80C00ADF80E00ADF81000ADF849
:1009D00014000C20ADF8120025208DF8040003202F
:1009E0008DF8050000208DF8060001208DF8070025
:1009F00001A8FFF7D1FC02A90548FFF741FF01213B
:100A00000348FFF7F9FE08B010BD000000000240E7
:100A10000010014000280DDB00BF00BF00F01F02E6
:100A2000012191404209920002F1E022C2F8001136
:100A300000BF00BF7047000010B5002804DB0A07A4
:100A4000130E054A135406E00A07140E034A00F079
:100A50000F031B1FD45410BD00E400E018ED00E0AC
:100A600002E008C8121F08C1002AFAD17047704777
:100A7000002001E001C1121F002AFBD170470000D5
:100A80001CB501210846FFF7C5FC01210220FFF734
:100A9000C1FC0020009001908DF804008DF8070043
:100AA0000120009069460548FFF704FC03200090F0
:100AB00069460348FFF7FEFB1CBD00000000024032
:100AC000000402401CB501210820FFF7A3FC002010
:100AD0000090019001208DF8040000208DF80600A0
:100AE0008DF805008DF807004FF4E04000904FF4BA
:100AF00080510948FFF749FC4FF400510648FFF7C1
:100B000044FC4FF480410448FFF73FFC694602482B
:100B1000FFF7D0FB1CBD0000000C02404FF47A71BF
:100B20005420FFF7CFFDFFF7CDFF4FF4E130FFF783
:100B30001DFFFFF7A5FFFFF771FB0EE061242046C4
:100B400000F01CF800F00AF80546284600F016F8F8
:100B50004FF47A70FFF714FE00BFEFE710B500BF47
:100B600020210548FFF754FE0028F9D00248FFF77E
:100B7000F1FEC4B2204610BD0010014010B504467D
:100B800000BF80210448FFF743FE0028F9D021462A
:100B90000148FFF7E4FE10BD0010014010B5044607
:100BA00003E02078FFF7EAFF641C20780028F8D1E2
:100BB000FFF7E4FF10BD0000D80B00080000002084
:100BC00018000000600A0008F00B00081800002060
:100BD00068040000700A0008000000000000000027
:100BE00000010203040102030406070809000000D3
:040000050800018965
:00000001FF
