:020000040800F2
:1000000080040020A1010008870300087F03000886
:1000100083030008E90100085B0B000800000000F2
:100020000000000000000000000000006105000862
:10003000ED0100080000000015040008510600084A
:10004000BB010008BB010008BB010008BB010008A0
:10005000BB010008BB010008F1010008BB0100085A
:10006000BB010008BB010008BB010008BB01000880
:10007000BB010008BB010008BB010008BB01000870
:10008000BB010008BB010008BB010008BB01000860
:10009000BB010008BB010008BB010008BB01000850
:1000A000BB010008BB010008BB010008BB01000840
:1000B000BB010008BB010008BB010008BB01000830
:1000C000BB010008BB010008BB010008BB01000820
:1000D000BB01000839090008BB010008BB0100088A
:1000E000BB010008BB010008BB010008BB01000800
:1000F000BB010008BB010008BB010008BB010008F0
:10010000BB010008BB010008BB010008BB010008DF
:10011000BB010008BB010008BD060008BB010008C8
:10012000BB010008BB010008BB010008BB010008BF
:10013000BB010008BB010008BB010008BB010008AF
:10014000BB010008BB010008BB010008BB0100089F
:10015000BB010008BB010008BB010008BB0100088F
:10016000BB010008BB010008BB010008BB0100087F
:10017000BB010008BB010008BB010008BB0100086F
:10018000BB010008BB010008DFF810D000F01AF82E
:1001900000480047710D0008AFF300808004002084
:1001A0000648804706480047FEE7FEE7FEE7FEE711
:1001B000FEE7FEE7FEE7FEE7FEE7FEE7550600087E
:1001C00089010008064C074D06E0E06840F0010395
:1001D00094E8070098471034AC42F6D3FFF7D8FFF5
:1001E0006C0E00088C0E000800BFFEE77047000090
:1001F0000548006800F0010028B10348006840F09D
:100200000100014908607047143C014010B500F03E
:1002100061FD2148006840F480401F4908601F4884
:10022000006820F00F001D4908601D48006840F07C
:1002300001001B4908601A480838006840F00100B6
:100240001749083908601548006820F0F000134984
:1002500008600846006840F0100008601048006818
:1002600040F002000E4908600D480838006840F070
:1002700002000B49083908600E21062000F0EAFC54
:10028000062000F0D5FC0E21072000F0E3FC07203B
:1002900000F0CEFC10BD0000443802400838014098
:1002A000083C0140F0B50A4600210023002400BFAD
:1002B0003DE0012505FA01F3156805EA03049C42B7
:1002C00034D105684F000326BE40B543056015795B
:1002D0004E00B5400668354305601579012D02D002
:1002E0001579022D16D185684F000326BE40B5430F
:1002F000856055794E00B540866835438560456810
:1003000001268E40B5434560456896798E40B6B269
:1003100035434560C5684F000326BE40B543C56000
:10032000D5794E00B540C6683543C560491C1029D3
:10033000BFD3F0BDF0B5002300244D07ED0E02FA47
:1003400005F3CE1000F1200555F826504E07F70EA4
:100350000F26BE40B543CF1000F1200646F82750C7
:10036000CE1000F1200555F8265045EA0304CE10C2
:1003700000F1200545F82640F0BD8161704700BFBF
:10038000FEE700BFFEE7704770B5002100230F2293
:10039000C4781CB3174C246804F4E064C4F5E0642A
:1003A000C4F30721C1F10404E3B20A4144789C403C
:1003B000E1B28478144021430C07210E0E4C0578DD
:1003C0006155047804F01F050124AC4005786D11D7
:1003D000AD0005F1E025C5F8004109E0047804F01E
:1003E0001F050124AC40054D0678761145F82640DE
:1003F00070BD00000CED00E000E400E080E100E0F2
:1004000002490143024A1160704700000000FA05EA
:100410000CED00E07047000029B1064A1268024363
:10042000044B1A6004E0034A12688243014B1A60CD
:10043000704700003038024029B1064A1268024372
:10044000044B1A6004E0034A12688243014B1A60AD
:10045000704700004038024029B1064A1268024342
:10046000044B1A6004E0034A12688243014B1A608D
:100470007047000044380240F0B5002100220024FB
:10048000022500260223324F3F6807F00C0121B1FC
:10049000042905D0082937D105E02E4F076036E042
:1004A0002D4F076033E02A4F3F1F3F68C7F3805648
:1004B000274F3F1F3F6807F03F036EB1264FB7FB42
:1004C000F3F7DFF88CC0ACF1040CDCF800C0CCF31F
:1004D000881C07FB0CF40CE01E4FB7FBF3F7DFF8AA
:1004E00070C0ACF1040CDCF800C0CCF3881C07FB36
:1004F0000CF4174F3F1F3F68C7F301477F1C7D0077
:10050000B4FBF5F7076002E0124F076000BF00BFC1
:100510000F4F3F6807F0F0010909104F7A5C076838
:10052000D74047600A4F3F6807F4E051890A0B4FF4
:100530007A5C4768D7408760054F3F6807F46041A1
:10054000490B064F7A5C4768D740C760F0BD000092
:10055000083802400024F40040787D0108000020A3
:10056000704700000CB500200190009034480068EE
:1005700040F480303249086000BF3148006800F420
:10058000003000900198401C0190009818B9019823
:10059000B0F5A04FF1D12A48006800F4003010B146
:1005A0000120009001E0002000900098012846D131
:1005B00023484030006840F08050214940310860B5
:1005C0002048006840F440401E4908601C4808303C
:1005D00000681B49083108600846006840F4004084
:1005E00008600846006840F4A05008601648091FDB
:1005F0000860081F006840F08070091F086000BF95
:100600000F48006800F000700028F9D040F2057033
:100610000E4908600A480830006820F003000849C5
:10062000083108600846006840F00200086000BF1A
:1006300003480830006800F00C000828F8D10CBD11
:10064000003802400070004019544007003C02404E
:100650007047000010B51548006840F47000134959
:1006600008601348006840F001001149086000204C
:100670000F49083108600E4800680E4908400C49CF
:1006800008600D48091D0860081F006820F48020DC
:10069000091F0860002006490C310860FFF762FF5F
:1006A0004FF0006001498039086010BD88ED00E01E
:1006B00000380240FFFFF6FE1030002410B5012183
:1006C000084800F07CF801280BD10121054800F012
:1006D00065F80548006820B103480068401E0249DB
:1006E000086010BD00100040000000207FB50446E7
:1006F0000D4601211020FFF79FFE681E0290601E2C
:1007000080B2ADF804000020ADF80C00ADF8060092
:1007100001A9104800F0CEF800210E4800F032F890
:10072000012211460B4800F05BF80121094800F056
:1007300044F836208DF8000003208DF801000020D9
:100740008DF8020001208DF803006846FFF71CFEBB
:100750007FBD00000010004010B50446012107488D
:1007600000F01FF80648046000BF05480068002834
:10077000FBD10021014800F014F810BD001000402A
:100780000000002021B1028842F08002028004E0D3
:1007900002884FF67F731A4002807047CA43028274
:1007A000704721B1028842F00102028004E0028811
:1007B0004FF6FE731A40028070478182704730B551
:1007C0000246002000230024158A05EA01039589CA
:1007D00005EA010413B10CB1012000E0002030BD96
:1007E0001AB183890B43838102E083898B43838120
:1007F0007047000070B5002400220023058C4FF6DE
:10080000EF7635400584028C8388048B48F6FF75AB
:100810002C404FF6FF452C400D884FF6FF7606EA38
:1008200005252C434FF6DF752A408D8906EA05150C
:100830002A434D8806EA05152A43154DA84202D0E1
:10084000144DA8421DD14FF67F752A40CD894FF631
:10085000FF7606EA05152A434FF6BF752A408D88B4
:1008600006EA05152A434FF6FF352B404FF2FF7578
:100870002B400D8A06EA85052B434D8A06EA85053D
:100880002B43838004838D688563028470BD0000E0
:1008900000000140000401400A460021018B4FF294
:1008A000FF7319404FF6FF7303EA022319430183D4
:1008B0007047000000220288184B98420ED0184B57
:1008C00098420BD0B0F1804F08D0164B984205D01B
:1008D000154B984202D0154B984204D14FF68F73B6
:1008E0001A404B881A43124B984207D0114B98423A
:1008F00004D04FF6FF431A400B891A4302804B681D
:10090000C3620B880385054B984202D0044B984282
:1009100001D18B7A03860123838270470000014056
:10092000000401400004004000080040000C0040AA
:10093000001000400014004008B540F22551164850
:1009400000F04DF880B140F22551134800F02CF82A
:10095000114800F0FDF8C1B2104802880088401C20
:100960000E4B18800E48815440F224410A4800F092
:1009700036F880B1084800880090074880880090C9
:1009800000200749054A128888540449088001203C
:100990000449087000BF08BD001001400600002097
:1009A0001C0000200400002010B50022002340F6A7
:1009B0006A14A14200D100BF0A1201249440A3B2DC
:1009C000DC43048010BD21B1828942F4005282814F
:1009D00004E082894DF6FF731A408281704770B53A
:1009E0000246002400230025002040F66A16B1428A
:1009F00000D100BFC1F3421501F01F03012606FA22
:100A000003F3012D02D19689334006E0022D02D175
:100A1000168A334001E0968A33400C12012606FA0A
:100A200004F41688344013B10CB1012000E000201A
:100A300070BDF0B50346002400260025002040F6D6
:100A40006A17B94200D100BF1846C1F3421401F041
:100A50001F06012707FA06F5012C01D10C3004E02E
:100A6000022C01D1103000E014301AB107682F4376
:100A7000076002E00768AF430760F0BD2DE9FF475C
:100A800005460E460024A14600BFA046B08900B12D
:100A900000BF2C8A24F44054F08804432C82AC8993
:100AA00041F20C608443B08831890843718908435E
:100AB0000443AC81AC8A24F44074B0890443AC8212
:100AC0006846FFF7D9FC2048854202D01F4885427E
:100AD00002D1DDF80C9001E0DDF80890A88900F45F
:100AE000004040B109EBC90000EB09103168490032
:100AF000B0FBF1F707E009EBC90000EB0910316822
:100B00008900B0FBF1F76420B7FBF0F00401200985
:100B1000642101FB1078A88900F4004040B1322024
:100B200000EBC800B0FBF1F000F00700044308E060
:100B3000322000EB08106421B0FBF1F000F00F0050
:100B400004432C81BDE8FF870010014000140140E0
:100B500001468888C0F30800704700BFFEE7000028
:100B600010B588B0044601210846FFF755FC012165
:100B70001020FFF771FC00200690079002208DF8EE
:100B80001C0000208DF81E008DF81D008DF81F0040
:100B90004FF4C0600690072209211F48FFF7CAFBE7
:100BA00007220A211C48FFF7C5FB06A91A48FFF7D0
:100BB00079FB02940020ADF80C00ADF80E00ADF802
:100BC0001000ADF814000C20ADF8120025208DF8AF
:100BD000040003208DF8050000208DF80600012098
:100BE0008DF8070001A8FFF7CFFB012240F2255145
:100BF0000A48FFF71EFF012240F224410748FFF791
:100C000018FF02A90548FFF739FF01210348FFF744
:100C1000DAFE08B010BD00000000024000100140E4
:100C2000014A024900F039B8BD0C00081800002044
:100C300000280DDB00BF00BF00F01F020121914022
:100C40004209920002F1E022C2F8001100BF00BF89
:100C50007047000010B5002804DB0A07130E054A90
:100C6000135406E00A07140E034A00F00F031B1F7B
:100C7000D45410BD00E400E018ED00E002E008C824
:100C8000121F08C1002AFAD170477047002001E006
:100C900001C1121F002AFBD170472DE9F041164611
:100CA0000F460446002503E03946B047641C6D1C1E
:100CB00020780028F8D12846BDE8F08100BF044A1A
:100CC000128802F08002002AF9D0014B9880704708
:100CD000001001401CB501210846FFF79DFB0121D2
:100CE0000220FFF799FB0020009001908DF804008E
:100CF0008DF807000120009069460548FFF7D2FAF9
:100D00000320009069460348FFF7CCFA1CBD0000A1
:100D100000000240000402401CB501210820FFF73A
:100D20007BFB00200090019001208DF80400002042
:100D30008DF806008DF805008DF807004FF4E040AF
:100D400000904FF480510948FFF717FB4FF4005112
:100D50000648FFF712FB4FF480410448FFF70DFBF4
:100D600069460248FFF79EFA1CBD0000000C0240D5
:100D70004FF48060FFF744FB4FF47A715420FFF783
:100D8000B5FCFFF7C9FF4FF4E130FFF7E9FEFFF7CD
:100D9000A1FFFFF73BFA44F62061542000F00EF863
:100DA00006E004A0FFF73CFF4FF4FA70FFF7D4FC15
:100DB000F7E700003131310D0A00000030B58BB08B
:100DC00004460D4601210846FFF726FB012108468F
:100DD000FFF732FB002009900A9002208DF82800CE
:100DE00000208DF82A000220099000208DF82B00A9
:100DF000012211461C48FFF79DFA09A91A48FFF77E
:100E000051FA681E0790601E80B2ADF818000020ED
:100E1000ADF82000ADF81A008DF8220006A94FF0B9
:100E20008040FFF747FD6020ADF804000120ADF8D9
:100E3000060000200390ADF8100001A94FF080409B
:100E4000FFF7D8FC0821C806FFF726FD0121880717
:100E5000FFF798FC01218807FFF7AFFC0121880705
:100E6000FFF79FFC0BB030BD000002408C0E000865
:100E7000000000201C0000007C0C0008A80E0008E8
:100E80001C000020640400008C0C0008000000001E
:100E9000000000000000000001020304010203043E
:080EA00006070809000000002C
:040000050800018965
:00000001FF
