:020000040800F2
:1000000008040020A1010008570300084F0300085E
:1000100053030008E901000805060008000000007D
:100020000000000000000000000000009D03000828
:10003000ED01000800000000590300088D040008CD
:10004000BB010008BB010008BB010008BB010008A0
:10005000BB010008BB010008F1010008BB0100085A
:10006000BB010008BB010008BB010008BB01000880
:10007000BB010008BB010008BB010008BB01000870
:10008000BB010008BB010008BB010008BB01000860
:10009000BB010008BB010008BB010008BB01000850
:1000A000BB010008BB010008BB010008BB01000840
:1000B000BB010008BB010008BB010008BB01000830
:1000C000BB010008BB010008BB010008BB01000820
:1000D000BB010008BB010008BB010008BB01000810
:1000E000BB010008BB010008BB010008BB01000800
:1000F000BB010008BB010008BB010008BB010008F0
:10010000BB010008BB010008BB010008BB010008DF
:10011000BB010008BB010008F9040008BB0100088E
:10012000BB010008BB010008BB010008BB010008BF
:10013000BB010008BB010008BB010008BB010008AF
:10014000BB010008BB010008BB010008BB0100089F
:10015000BB010008BB010008BB010008BB0100088F
:10016000BB010008BB010008BB010008BB0100087F
:10017000BB010008BB010008BB010008BB0100086F
:10018000BB010008BB010008DFF810D000F01AF82E
:10019000004800479D070008AFF3008008040020D6
:1001A0000648804706480047FEE7FEE7FEE7FEE711
:1001B000FEE7FEE7FEE7FEE7FEE7FEE79104000844
:1001C00089010008064C074D06E0E06840F0010395
:1001D00094E8070098471034AC42F6D3FFF7D8FFF5
:1001E000180800083808000800BFFEE77047000044
:1001F0000848006800F0010058B10648006840F067
:100200000100044908600448006820F48050024955
:1002100008607047143C0140140C024010B500F017
:100220006FFA2148006840F480401F4908601F4869
:10023000006820F00F001D4908601D48006840F06C
:1002400001001B4908601A480838006840F00100A6
:100250001749083908601548006820F0F000134974
:1002600008600846006840F0100008601048006808
:1002700040F002000E4908600D480838006840F060
:1002800002000B49083908600421062000F0F8F943
:10029000062000F0E3F90621072000F0F1F907201D
:1002A00000F0DCF910BD000044380240083801407D
:1002B000083C0140F0B50A4600210023002400BF9D
:1002C0003DE0012505FA01F3156805EA03049C42A7
:1002D00034D105684F000326BE40B543056015794B
:1002E0004E00B5400668354305601579012D02D0F2
:1002F0001579022D16D185684F000326BE40B543FF
:10030000856055794E00B5408668354385604568FF
:1003100001268E40B5434560456896798E40B6B259
:1003200035434560C5684F000326BE40B543C560F0
:10033000D5794E00B540C6683543C560491C1029C3
:10034000BFD3F0BD0A04826170478161704700BF6E
:10035000FEE700BFFEE770477047000029B1064A7C
:1003600012680243044B1A6004E0034A1268824395
:10037000014B1A60704700003038024029B1064A2C
:1003800012680243044B1A6004E0034A1268824375
:10039000014B1A607047000044380240704700006B
:1003A0000CB50020019000903448006840F4803083
:1003B0003249086000BF3148006800F40030009006
:1003C0000198401C0190009818B90198B0F5A04F11
:1003D000F1D12A48006800F4003010B101200090EB
:1003E00001E0002000900098012846D123484030C9
:1003F000006840F080502149403108602048006882
:1004000040F440401E4908601C48083000681B4901
:10041000083108600846006840F40040086008465B
:10042000006840F4A05008601648091F0860081FC3
:10043000006840F08070091F086000BF0F48006826
:1004400000F000700028F9D040F205700E490860F5
:100450000A480830006820F00300084908310860A5
:100460000846006840F00200086000BF03480830FA
:10047000006800F00C000828F8D10CBD00380240DC
:100480000070004019544007003C024070470000D3
:1004900010B51548006840F470001349086013480F
:1004A000006840F001001149086000200F49083140
:1004B00008600E4800680E4908400C4908600D4865
:1004C000091D0860081F006820F48020091F0860CB
:1004D000002006490C310860FFF762FF4FF0006012
:1004E00001498039086010BD88ED00E00038024005
:1004F000FFFFF6FE103000240848008A00F00100DB
:1005000050B10648008A20F00100044908820448DE
:100510000068401E0249086070470000001000405B
:100520000000002070B502460B462948006840F0E4
:10053000100027490860501E26490885581EC862C9
:100540000846008820F0020008800846008820F055
:10055000040008800846008820F00800088008464B
:10056000008820F0800008800846808940F0010063
:1005700088810846808A40F0010088820846008809
:1005800040F00100088036200721002804DB0C071A
:10059000250E114C255406E00C07260E0F4C00F0DA
:1005A0000F052D1F665500BF362000280DDB00BF4C
:1005B00000BF00F01F040121A1404409A40004F180
:1005C000E024C4F8001100BF00BF00BF70BD0000F0
:1005D000403802400010004000E400E018ED00E068
:1005E0000649098841F00101044A11800449086064
:1005F00000BF034909680029FBD170470010004083
:100600000000002000BFFEE71CB50446012108469B
:10061000FFF7A4FE01211020FFF7B0FE002000909C
:10062000019002208DF8040000208DF806008DF85E
:1006300005008DF807004FF4C0600090694602483D
:10064000FFF738FE1CBD000000000240014A0249CD
:1006500000F039B8E90600080400002000280DDB8E
:1006600000BF00BF00F01F0201219140420992002B
:1006700002F1E022C2F8001100BF00BF7047000085
:1006800010B5002804DB0A07130E054A135406E0D0
:100690000A07140E034A00F00F031B1FD45410BDA9
:1006A00000E400E018ED00E002E008C8121F08C1F5
:1006B000002AFAD170477047002001E001C1121FE3
:1006C000002AFBD170472DE9F04116460F4604463B
:1006D000002503E03946B047641C6D1C20780028D3
:1006E000F8D12846BDE8F08100BF044A128802F024
:1006F0008002002AF9D0014B988070470010014019
:100700001CB501210846FFF729FE01210220FFF751
:1007100025FE0020009001908DF804008DF8070060
:100720000120009069460548FFF7C4FD03200090B2
:1007300069460348FFF7BEFD1CBD000000000240F3
:10074000000402401CB501210820FFF707FE00202D
:100750000090019001208DF8040000208DF8060023
:100760008DF805008DF807004FF4E04000904FF43D
:1007700080510948FFF7E9FD4FF400510648FFF7A3
:10078000E4FD4FF480410448FFF7DFFD694602486D
:10079000FFF790FD1CBD0000000C02400320024644
:1007A000184B19684FF6FF031940174B0B4343EAE8
:1007B0000221144B196000BF4FF47A715420FFF7E7
:1007C000B1FEFFF7BFFF4FF4E130FFF71DFFFFF76A
:1007D00097FFFFF723FD14E00CA0FFF737FF4FF45E
:1007E00080510C48FFF7B1FD4FF47A70FFF7F8FE27
:1007F0004FF480510748FFF7A5FD4FF47A70FFF7DB
:10080000EFFEE9E70CED00E00000FA053131310DB3
:100810000A000000000C0240380800080000002018
:1008200008000000A8060008400800080800002092
:1008300000040000B80600080000000000000000EE
:040000050800018965
:00000001FF
