:020000040800F2
:1000000008040020A1010008BD020008B502000894
:10001000B9020008E90100082905000800000000F5
:10002000000000000000000000000000C102000805
:10003000ED01000800000000BF020008B103000845
:10004000BB010008BB010008BB010008BB010008A0
:10005000BB010008BB010008F1010008BB0100085A
:10006000BB010008BB010008BB010008BB01000880
:10007000BB010008BB010008BB010008BB01000870
:10008000BB010008BB010008BB010008BB01000860
:10009000BB010008BB010008BB010008BB01000850
:1000A000BB010008BB010008BB010008BB01000840
:1000B000BB010008BB010008BB010008BB01000830
:1000C000BB010008BB010008BB010008BB01000820
:1000D000BB010008BB010008BB010008BB01000810
:1000E000BB010008BB010008BB010008BB01000800
:1000F000BB010008BB010008BB010008BB010008F0
:10010000BB010008BB010008BB010008BB010008DF
:10011000BB010008BB0100081D040008BB0100086A
:10012000BB010008BB010008BB010008BB010008BF
:10013000BB010008BB010008BB010008BB010008AF
:10014000BB010008BB010008BB010008BB0100089F
:10015000BB010008BB010008BB010008BB0100088F
:10016000BB010008BB010008BB010008BB0100087F
:10017000BB010008BB010008BB010008BB0100086F
:10018000BB010008BB010008DFF810D000F01AF82E
:100190000048004755070008AFF30080080400201E
:1001A0000648804706480047FEE7FEE7FEE7FEE711
:1001B000FEE7FEE7FEE7FEE7FEE7FEE7B503000821
:1001C00089010008064C074D06E0E06840F0010395
:1001D00094E8070098471034AC42F6D3FFF7D8FFF5
:1001E000B0070008D007000800BFFEE77047000016
:1001F0000848006800F0010058B10648006840F067
:100200000100044908600448006820F48050024955
:1002100008607047143C0140140C024010B500F017
:1002200049FA2148006840F480401F4908601F488F
:10023000006820F00F001D4908601D48006840F06C
:1002400001001B4908601A480838006840F00100A6
:100250001749083908601548006820F0F000134974
:1002600008600846006840F0100008601048006808
:1002700040F002000E4908600D480838006840F060
:1002800002000B49083908600421062000F0D2F969
:10029000062000F0BDF90621072000F0CBF9072069
:1002A00000F0B6F910BD00004438024008380140A3
:1002B000083C014000BFFEE700BFFEE77047704703
:1002C000704700000CB50020019000903448006891
:1002D00040F480303249086000BF3148006800F4C3
:1002E000003000900198401C0190009818B90198C6
:1002F000B0F5A04FF1D12A48006800F4003010B1E9
:100300000120009001E0002000900098012846D1D3
:1003100023484030006840F0805021494031086057
:100320002048006840F440401E4908601C480830DE
:1003300000681B49083108600846006840F4004026
:1003400008600846006840F4A05008601648091F7D
:100350000860081F006840F08070091F086000BF37
:100360000F48006800F000700028F9D040F20570D6
:100370000E4908600A480830006820F00300084968
:10038000083108600846006840F00200086000BFBD
:1003900003480830006800F00C000828F8D10CBDB4
:1003A000003802400070004019544007003C0240F1
:1003B0007047000010B51548006840F470001349FC
:1003C00008601348006840F00100114908600020EF
:1003D0000F49083108600E4800680E4908400C4972
:1003E00008600D48091D0860081F006820F480207F
:1003F000091F0860002006490C310860FFF762FF02
:100400004FF0006001498039086010BD88ED00E0C0
:1004100000380240FFFFF6FE103000240848008A32
:1004200000F0010050B10648008A20F001000449A4
:10043000088204480068401E0249086070470000B6
:10044000001000400000002070B502460B4629480D
:10045000006840F0100027490860501E26490885B2
:10046000581EC8620846008820F00200088008462E
:10047000008820F0040008800846008820F008006A
:1004800008800846008820F080000880084680899F
:1004900040F0010088810846808A40F0010088828F
:1004A0000846008840F00100088036200721002817
:1004B00004DB0C07250E114C255406E00C07260E14
:1004C0000F4C00F00F052D1F665500BF3620002889
:1004D0000DDB00BF00BF00F01F040121A140440953
:1004E000A40004F1E024C4F8001100BF00BF00BF65
:1004F00070BD0000403802400010004000E400E001
:1005000018ED00E00649098841F00101044A118014
:100510000449086000BF034909680029FBD17047FE
:10052000001000400000002000BFFEE770B5304D15
:100530002D6845F001052E4E35602D4D14352D6882
:1005400045F010052A4E143635602A4D2D6825F4E5
:100550007015284E356035462D6845F420153560F8
:1005600035466D6825F4C06575603546AD6845F45F
:100570008025B5603546ED6825F47015F560354683
:100580006D6A45F4EE661B4D6E621B490501B1FBB9
:10059000F5F20501B1FBF5F605FB16131D01060189
:1005A00005EB56050601B5FBF6F444EA0215134EB9
:1005B00035813546AD8945F00C05B5813546AD89A7
:1005C00025F48065B5813546AD8925F48055B58122
:1005D0003546AD8925F40045B58135462D8A25F48B
:1005E000405535823546AD8945F40055B58170BD1D
:1005F000303802400000024000BD010500100140FB
:10060000014A024900F039B89D06000804000020A4
:1006100000280DDB00BF00BF00F01F020121914048
:100620004209920002F1E022C2F8001100BF00BFAF
:100630007047000010B5002804DB0A07130E054AB6
:10064000135406E00A07140E034A00F00F031B1FA1
:10065000D45410BD00E400E018ED00E002E008C84A
:10066000121F08C1002AFAD170477047002001E02C
:1006700001C1121F002AFBD170472DE9F041164637
:100680000F460446002503E03946B047641C6D1C44
:1006900020780028F8D12846BDE8F08100BF044A40
:1006A000128802F08002002AF9D0014B988070472E
:1006B000001001401248006840F001001049086035
:1006C0000846006840F0020008600E48006820F00C
:1006D00003000C4908600C48006820F00F000A492C
:1006E00008600848C06820F003000649C860064852
:1006F0000C30006820F00F0003490C31086070478F
:100700003038024000000240000402400F480068F8
:1007100040F008000D4908600D48006820F07C504A
:100720000B4908600846006840F0A8500860081DA2
:10073000006820F4E040091D086005481430006896
:1007400040F4E040024914310860704730380240FC
:10075000000C024003200246114B19684FF6FF03BC
:100760001940104B0B4343EA02210D4B196000BFA7
:100770004FF47A715420FFF767FEFFF7C7FF4FF47D
:10078000E130FFF7D3FEFFF795FFFFF747FD06E0E7
:1007900005A0FFF735FF4FF47A70FFF7B3FEF7E7D8
:1007A0000CED00E00000FA053131310D0A000000C7
:1007B000D007000800000020080000005C060008C8
:1007C000D807000808000020000400006C0600089C
:0807D000000000000000000021
:040000050800018965
:00000001FF
